:020000040800F2
:10000000680800205101000875390008292A0008F5
:1000100071390008810600082D4D0008000000001D
:10002000000000000000000000000000FD43000888
:100030007507000800000000993C0008D144000842
:100040006B0100086B0100086B010008593F0008B4
:100050006B0100086B0100086B0100086B010008D0
:100060006B0100086B0100086B010008E90600083D
:100070006B0100086B0100086B0100086B010008B0
:100080006B0100086B0100081D0200086B010008ED
:100090006B0100086B0100086B0100087D07000878
:1000A0006B0100086B0100086B0100086B01000880
:1000B0006B0100086B0100086B0100086B01000870
:1000C0006B0100086B010008354200086B01000855
:1000D0006B0100086B0100086B0100086B01000850
:1000E0006B0100086B0100086B0100086B01000840
:1000F000312A0008392A0008BD2300086B010008D6
:100100006B0100086B0100086B0100086B0100081F
:100110006B0100086B0100086B0100086B0100080F
:100120006B0100086B0100086B0100086B010008FF
:100130006B0100086B0100086B010008DFF80CD0B0
:1001400000F03CF8004800474958000868080020C3
:100150000648804706480047FEE7FEE7FEE7FEE761
:10016000FEE7FEE7FEE7FEE7FEE7FEE77D45000867
:100170003D01000840EA01039B0703D009E008C9DC
:10018000121F08C0042AFAD203E011F8013B00F85C
:10019000013B521EF9D27047D2B201E000F8012BA8
:1001A000491EFBD270470022F6E710B513460A46F7
:1001B00004461946FFF7F0FF204610BD064C074DD8
:1001C00006E0E06840F0010394E807009847103427
:1001D000AC42F6D3FFF7B6FF645C0008945C0008FD
:1001E00030B58C1810F8012B12F00F0301D110F864
:1001F000013B120906D110F8012B03E010F8015B56
:1002000001F8015B5B1EF9D101E001F8013B521ED0
:10021000FBD1A142E6D3002030BD000080B540F202
:100220009C20C2F2000000F07DFC80BD10B588B0BB
:1002300045F6F410C0F6000090E80E5044690191B4
:10024000018B807E02920393CDF810C0CDF814E0AC
:100250000694ADF81C108DF81E0004F0ADFA01A84C
:1002600003F08AFF08B010BD80B584B00021426859
:100270000391527B0291012A019100911BD0DAB9BE
:10028000FFF7D4FF0F208DF800007F208DF80200CB
:1002900002F0C8FDADF80C0002F0BCFDADF80E0098
:1002A000684603F05BFF00F01DF80120002104F018
:1002B00077FB04B080BD017004B080BD70470000C2
:1002C00010B584B004464068B0F80B00B0F5124F8A
:1002D00005D1684603F05EFF2046FFF7C5FF04B076
:1002E00010BD000070B590B045F61020C0F60000BB
:1002F00090E84E00D0E90454D0E906CE049600F10F
:100300002006019102920393CDE905547ECE008F21
:10031000CDE907CE0DF1240C8CE83E000E96ADF829
:100320003C0000F097F902200121012404F038FB81
:1003300045F2FD62C0F6000202200021002504F013
:1003400079FB01A803F0FCFE002818BF00F03EFA7C
:1003500000F0F6F803F0E2FF40F29406C2F2000665
:100360004FF6FF7040F2CD32F082C0F6000201205D
:10037000002186F8805004F05DFB062004F0F2FFB7
:1003800003F048FB40F2ED3306F18101C0F60003B3
:100390000020002202F064F944F2794306F1820160
:1003A000C0F600030020002202F05AF940F28A0051
:1003B000C2F20000047040F28800C2F20000047033
:1003C0000220358300F018F810B070BD10B540F26F
:1003D0009404C2F2000494F88000052808BF10BD00
:1003E00004F02EFE002084F8800010BD80B50120AE
:1003F000002104F003FC80BD2DE9F04188B040F2FB
:100400008A01C2F20001044640F288000D78C2F26F
:1004100000000678002D40F2940818BF8025002EB9
:10042000C2F2000818BFA026012C18BF4FF4C865FF
:1004300098F8810018BF4FF47A6602F095FA022C02
:1004400006D198F880000138012898BF04F0F8FD23
:1004500098F8180045F64442002708F11901C0F643
:1004600000020823CDE90073CDE90220CDE904178D
:10047000002029463246002388F88040069704F081
:1004800069FD40F22001C2F200010E2004F0F8FDE7
:10049000012C08BF002802D008B0BDE8F08198F810
:1004A00081004EF24601C0F2010102F00FFA08B0DD
:1004B000BDE8F0817047000080B5012806D0002813
:1004C00018BF80BD072004F0A1FA80BD072004F00A
:1004D000C3FA80BD10B504464068083003F060FFE1
:1004E000002818BF0120207010BD000070470000D8
:1004F00070470000B0B502F0D3FC0446013013D0C1
:1005000002F0C6FC054602F0BDFC40F29421C2F2A6
:100510000001220A8870280A4A7008712A0C0846CD
:100520000C70CD704A71B0BD002003F04FFA45F653
:100530004C41C0F60001002808BF0846B0BD0000CD
:100540002DE9F04188B00025ADF8185005F052F8BB
:10055000FFF7D0FF044600200621224604F050FF9A
:10056000607940F22001C2F200010872207945F65C
:1005700034424872E078C0F600028872A0784FF0EA
:100580001008C8726078087320784873182010210A
:1005900004F036FF45F62442C0F600020820102180
:1005A000082604F02DFF01201821012704F000FF88
:1005B00004F084FE07A80DF11A0400900DF11E034B
:1005C000012000210722019404F042FCBDF81E0026
:1005D000BDF81C101DA400220723009404F08EFE19
:1005E000BDF81E00BDF81A1006AC002202230094CC
:1005F00004F084FE00200221022204F0BFFF40F23A
:100600009404C2F200040120277004F0F3FC4BF2C2
:1006100007200121C0F20100C1F20801A060C4F866
:100620000210CDE902500120012101220023677050
:10063000CDE90068049504F051FCA078002818BFAB
:1006400004F0E6FB08B0BDE8F08100BF57656172B9
:100650007061740080B582B040F22800C2F20300DD
:10066000009040F2B940C0F60000019040F2D54041
:10067000C0F60000694604F033FF02B080BD000000
:10068000FEE700007047000080B580B140F28000B6
:10069000C2F200000121017040F25C10C2F20000C1
:1006A0000168002908BF80BD0120884780BD40F255
:1006B0005C10C2F20000016809B10020884740F2D6
:1006C0008000C2F200000021017080BD80B50020D2
:1006D00003F07CF9002808BF80BD807902F092FC0D
:1006E00080BD00007047000080B540F22030C2F2AB
:1006F000000000F06FFC80BD10B501686FF00703CB
:100700004CF6CD42D0F844C053FA81F3CCF6CC423B
:10071000A3FB022E2CF0030240F2084C40F61C030F
:10072000C4F2020CC4F20203614503F1640438BF51
:100730000CF57E731A44CEF3041301219940C0E9ED
:100740001224016510BD0000416840F6001201F05E
:100750003F010139C4F2020202EB810302F1400CB5
:1007600001F00301012202FA01F1C0E9153CC16563
:1007700070470000704700007047000080B54FF4DC
:10078000807000F0F7FC80BD80B500BF032002F050
:100790008DFB0028FAD1042002F088FB40B902F05A
:1007A000C3FB10B902F0C8FB60B1042002F08CFB5F
:1007B00003F064FE44F20000C5F60000016821F079
:1007C00007010160032002F07FFB80BDEFF3108082
:1007D00072B600BFFEE7000080B5042002F074FB93
:1007E000032002F063FB0028FAD102F0DFFB0320B4
:1007F00002F06AFB80BD00007047000070470000F7
:10080000704700007047000070470000704700000C
:10081000F0B581B004460020009094F85000012803
:1008200002D1022001B0F0BD20680D46012184F8FC
:10083000501002F06BF928B1606D40F02000606547
:100840000120AFE02068D5E9002102F06BF92068B3
:1008500002F05CF921680646084602F03BF9304395
:1008600040F09B8020682968AA6802F06FF9206830
:1008700029696B69C268042940F088804FF6FF77C8
:100880000021C0F2070702F01FF92168064608465A
:10089000002102F019F9720390FAA0F12A68B1FA66
:1008A00081F108BFC0F3846192FAA2F0B0FA80F03F
:1008B000530308BFC2F38460814203D12068002142
:1008C00002F092F92068012102F0FEF82168064644
:1008D0000846012102F0F8F890FAA0F12A68B1FA6E
:1008E00081F13E4208BFC0F3846192FAA2F0B0FAEF
:1008F00080F03A4208BFC2F38460814203D120688D
:10090000012102F071F92068022102F0DDF821686E
:1009100006460846022102F0D7F890FAA0F12A68AC
:10092000B1FA81F13E4208BFC0F3846192FAA2F0AD
:10093000B0FA80F03A4208BFC2F38460814203D12A
:100940002068022102F050F92068032102F0BCF86F
:10095000216806460846032102F0B6F890FAA0F195
:100960002A68B1FA81F13E4208BFC0F3846192FA6D
:10097000A2F0B0FA80F03A4208BFC2F3846081422C
:100980000BD12068032102F02FF906E0062707EAC1
:1009900092072A68BB4002F015F9206802F0AAF815
:1009A00028B10020002184F8501001B0F0BD20686B
:1009B0002968EA6802F0DCF8E8680021C4F27F01E7
:1009C000884242D1D5F800E04FF080619EFAAEF245
:1009D0007346B2FA82F76FF3DF433A462068002B82
:1009E00008BF4FEA9E62561C01EB826106F01E0CA6
:1009F00001F0F84206F01F010126BCF1090F06FACA
:100A000001F60DD842EA0601002B08BF4FEA9E67A7
:100A10007A1C02F01F0202EB420241EA025111E08D
:100A2000002B08BF4FEA9E67791C01F01F010023CD
:100A300001EB4101CFF6206303EB01513243114337
:100A400041F00071AA6802F081F8688848F2080154
:100A5000084218D00027C5F2040702F02DF8064618
:100A6000384602F047F800287FF4E6AE29683002E5
:100A70000BD40020CCF25270814206D12068B842DB
:100A80001FD000208EE700208CE7F00109D4002061
:100A9000CCF68430814204D12068B84233D00020A3
:100AA00080E770024FF000003FF57CAF0122C8F2F2
:100AB000000291427FF476AF2068B84228D000202F
:100AC00070E746F4000002F073F840F21800C2F23A
:100AD0000000006842F663518009C0F23E51A0FB5D
:100AE0000101880900EB40000C2101EB800000901F
:100AF000009858B1009801380090009800284FF0F5
:100B00000000F7D14EE746F0807003E0002049E78F
:100B100046F4800002F04CF8002043E770470000E4
:100B20007047000070B5044600680168406800EA3C
:100B30000106B0070CD5606DC00603D4606D40F4AB
:100B4000006060652046FFF759FE206802210160C1
:100B5000700758BF5FEA067033D5606DC00603D4D6
:100B6000606D40F400706065206801F0D3FF10B341
:100B70002068C16889041ED4016809071BD501F0EB
:100B8000C5FF40B1606D40F010006065A06D40F0A1
:100B90000100A0650FE02068416821F00C01416070
:100BA000606D20F480706065606DC00403D4606D7A
:100BB00040F0010060652046FFF7B0FF20680C217F
:100BC0000160B00658BF5FEA466040D5606DC00660
:100BD00003D4606D40F400506065206801F07EFF32
:100BE00021680546084601F095FF2168CA6845B3AB
:100BF000930103D528B312F4005022D108684006AF
:100C00001FD5C86880021CD4084601F063FF40B1BC
:100C1000606D40F010006065A06D40F00100A065BF
:100C20000FE02068416821F060014160606D20F4B0
:100C300080506065606DC00503D4606D40F00100B8
:100C400060652046FFF7DCFD20686021016030060A
:100C500006D4F00510D4B0051BD4F0063AD525E033
:100C6000606D40F480306065204600F013F9206824
:100C700080210160F005EED5606D40F400306065C4
:100C80002046FFF7C1FD20684FF480710160B00578
:100C9000E3D5606D40F4802060652046FFF7B6FD27
:100CA00020684FF400710160F00613D5606B18B135
:100CB000206801F027FF50B1606D40F480606065EE
:100CC000A06D40F00200A0652046FFF729FF2068D4
:100CD00010210160700558BF70BD2068616D41F43E
:100CE00080416165A16D41F00801A1654FF480610B
:100CF00001602046FFF786FD70BD000070B582B030
:100D0000044600200190CCB1606D30B9204600F05F
:100D1000C3F80020A06584F85000206801F0E6FECA
:100D200010B1206801F0B6FE206801F0E7FE38B18E
:100D3000206801F0E3FEF0B1002525E00125A5E0E3
:100D4000206801F0AFFE40F21800C2F20000006817
:100D500042F663518009C0F23E51A0FB01018809AF
:100D6000022101EB400000BF019001980028DFD074
:100D700001980138F8E7606D012540F010006065CA
:100D8000A06D40F00100A065206801F0BFFE616D1C
:100D900001F010010843606D03D040F01000012500
:100DA00073E020F4817002306065206801F0A2FEDB
:100DB00040B90020C5F2040001F09CFE10B9606843
:100DC00001F0ECFE607E616B41EA4030D4E9022123
:100DD000084394F820101043012940EA014106D14C
:100DE000606A0022CFF6FE7202EB40400143A06A27
:100DF00028B100F47070E26A084340EA02012068FA
:100E00004CF20703C268CFF6F0731A401143C16079
:100E100001F07CFE21680646084601F05BFE304387
:100E200024D194F83000217E4200206842EA8131CA
:100E3000C26844F202039A431143C16094F8382017
:100E40000169012A0FD140F2FD7204F13C0621EA4A
:100E5000020C4CCEA16C42EA0C021A4332431143FD
:100E600041F0010101E021F00101016120682169E7
:100E7000026B012922F00F0102D1E269013A11430C
:100E80000163606D012161F301006065284602B0D5
:100E900070BD000070470000F0B599B00446002016
:100EA0001890CDE91600CDE9140068465021FFF7EF
:100EB0007AF920680021C5F20401884201D019B0F6
:100EC000F0BD182001904FF4003002904FF00070F8
:100ED00003904FF0005004904FF080504FF4806624
:100EE00005900F906846009600F00EFB002818BF92
:100EF000FFF76CFC4FF4005001F09AFE012001F066
:100F000097FE1F20149003201590002714A94FF07E
:100F10009040169700F03CF940F220350820C2F2CC
:100F20000005C4F2020005214FF4807385E88300B8
:100F300005F114008022C8C02846C5E903722F625B
:100F400000F09EF8002818BFFFF740FC12200F2188
:100F50000022E564AC6200F0B1FA122000F0A6FABB
:100F600019B0F0BD80B590F8251002292DD1016887
:100F7000D0E910CE826C0B6823F00E030B600B6877
:100F800023F001030B60116821F4807111600EF0F1
:100F90001C02012101FA02F2CCF80420D0E913323C
:100FA0005A60426D32B1136823F480731360D0E944
:100FB0001623536080F82510826B002180F82410DE
:100FC0000AB190470021084680BD0421C163012178
:100FD000084680BDB0B50268D0E910C4DCF8005006
:100FE000136804F01C0E590712D5042101FA0EF4FF
:100FF00014EA05010CD01168890603D4116821F0A8
:1010000004011160CCF80440016BB9B38847B0BD4E
:10101000990718D5022101FA0EF414EA050112D03D
:101020001168890606D4116821F00A0111600121B6
:1010300080F82510CCF80440C16A002280F82420F2
:10104000E1B18847B0BD190758BFB0BD082101FA0A
:101050000EF1294012D0116821F00E01116001211A
:1010600001FA0EF2CCF80420C16380F82510416B20
:101070000022002980F8242018BF8847B0BD000056
:10108000002804BF012070472DE9F04140F2000C18
:101090000446C4F2020C00684FF6F8330CF5816286
:1010A000CBF6FD73904238BF03F5806303EB00027B
:1010B0004CF6CD43CCF6CC43A2FB032304F1080E3F
:1010C0000CF580616FF003059EE804413CBF0021F0
:1010D000C4F2020105EA9303C4E91013022184F863
:1010E0002510016847F6F073994304F11407114382
:1010F000E8CF41EA080141EA0E011943294331438F
:10110000394301602046FFF7F7FAA06804F148036D
:10111000B0F5804F04BF0020606060680ECB00F027
:101120003F07013803280F60536009D82046FFF7B6
:101130000BFB04F1540207CA002303604A6003E07A
:101140000020C4E91500E06500200121E06384F877
:10115000251084F82400BDE8F0810000B0F5807F00
:1011600018BF704780B50420002103F047FDBDE89B
:101170008040704780B540F60C01C5F600010A6852
:10118000024208BF80BD0860FFF7E8FF80BD000095
:101190002DE9F04F82B00D68002D00F0BD8000F108
:1011A000384341F200074FEAB322C4F60007019228
:1011B0000722B8424FF000044FF000074FF001063D
:1011C00008BF0422009209E00D68043735FA06F2E0
:1011D00006F1010604F1020400F09E80A6F1010868
:1011E000012202FA08FA15EA0A0BEDD0D1F804C080
:1011F0000CF00309A9F1010EBEF1010F12D8D0F8CD
:1012000008E00322CB68A2402EEA0202A3401A4360
:1012100082604268CCF3001322EA0A0203FA08F360
:101220001A434260B9F1030F22D00322D0F80CC058
:1012300002FA04F38A682CEA0303A2401A43B9F1C4
:10124000020FC26014D16FF0030202EA5802024496
:10125000D2F820C007F01C030F25D1F8109005FA32
:1012600003FE2CEA0E0C09FA03F343EA0C031362A3
:10127000026803234D68A3409A4305F00303A3408B
:101280001A4315F4403F02609ED028F0030E40F24E
:101290000808C4F201085EF808C007F00C050F2228
:1012A00002FA05F3019A2CEA030C009B042A38BFCA
:1012B0001346AB4043EA0C034EF8083040F6000EEC
:1012C000C5F6000EDEF800C04B684CEA0B05DA02EA
:1012D00058BF2CEA0B05CEF80050DEF804C09A0285
:1012E0004CEA0B0558BF2CEA0B05CEF80450DEF88B
:1012F00080C0DA034CEA0B0558BF2CEA0B05CEF888
:101300008050DEF884209B0342EA0B0558BF22EA96
:101310000B05CEF8845057E702B0BDE8F08F00000F
:101320001823002A08BF2823C150704740F26440A8
:10133000C2F200000068704740F23000C2F20000C4
:10134000006870477047000080B541F20051C5F653
:101350000001C8680A6882430A604860FFF7F2FF2C
:1013600080BD0000002804BF01207047B0B50446CE
:1013700090F8380010B9204600F014F840F6004507
:10138000C5F60005284601F05BFB286840F0011017
:101390002860204601F05CFB00200121606384F896
:1013A0003810B0BD80B5006840F60041C5F60001B8
:1013B000884218BF80BD01F057FC2C20002100227C
:1013C00000F07CF82C2000F071F82D200021002284
:1013D00000F074F82D2000F069F880BD704700001F
:1013E0007047000040F22E0040F26441C2F200005B
:1013F000C2F2000100780A681044086070470000DB
:1014000080B544F20000C5F60000016841F4807127
:101410000160032000F062F80F2000F009F80028B6
:101420001CBF012080BD00F02DF8002080BD000011
:10143000B0B540F22E05C2F200052978F1B104469C
:1014400000F048FA29784FF47A72B2FBF1F1B0FB60
:10145000F1F000F0A1FF0F2C4FF001050CD858B9A6
:101460004FF0FF3021460022002500F027F840F21F
:101470003000C2F2000004602846B0BD01252846B5
:10148000B0BD000080B501F0FFFB2E20002100223E
:1014900000F014F82E2000F009F880BD80B503F0AC
:1014A00049FC80BD80B503F055FC80BD80B503F0DC
:1014B00065FC80BD80B503F079FC80BD70B5144635
:1014C0000D46064603F06AFC2946224602F054FA0D
:1014D0000146304603F07AFC70BD000080B503F091
:1014E00087FC80BD40F20040C5F60000006800F4B3
:1014F000C060704740F20040C5F60000016841F44A
:101500008071016070470000F0B581B0044600783A
:10151000400602D4002500261EE0206B6FF001017A
:1015200001EBB051022913D34FEAB050002842D04A
:10153000012847D10C20C5F600000168002641F4BF
:10154000803101603EB9206B01F068FF002503E0A7
:101550000026002EF7D03546607800073AD501F016
:101560001DFD216C884234D00546FFF7C3FF6DB3E3
:101570000C25C5F60005D5F8847001F0F7FC01F0E4
:10158000B9FE206C27F440710843C5F8840001F0CF
:10159000D7FD01281DD1FFF7C9FE054641F2893765
:1015A00001F0DEFD012814D0FFF7C0FE401BB84259
:1015B000F6D303250EE0201D02F08AFB0646002E1E
:1015C000C9D1C0E70126002EC5D1BCE7206C01F0CF
:1015D0001BFF35462078C00702D0A06901F058FFF4
:1015E0002078800702D5E06901F0F0FE2078C0067F
:1015F00002D5A06A01F0DCFE2078800602D5E06A00
:1016000001F0D6FE2078400702D5206A01F0C0FE26
:101610002078000702D5606A01F0BAFE6078C00742
:1016200017D0606B01F03EFF606BB0F1806F0AD0A5
:10163000B0F1006F0DD10C20C5F60000016841F03B
:101640008071016005E0201D02F080FB002818BFBA
:1016500005466078800713D5A06BB0F1004F18BF26
:10166000B0F1804F21D101F0C5FEA06BB0F1C05F99
:1016700006D10C20C5F60000016841F080710160C0
:101680006078400722D5E06B01F03CFEE06BB0F1E2
:10169000805F15D0B0F1005F18D10C20C5F60000B6
:1016A000016841F48031016010E00028DBD020F0B7
:1016B0008056002001F09EFE304601F057FED4E730
:1016C000201D02F081FB002818BF05466078C00687
:1016D00002D5606C01F084FE6078800605D5E06C70
:1016E00001F0B8FEA06C01F0ABFE284601B0F0BDE1
:1016F0002DE9F041002800F0C48044F20007C5F64F
:101700000007054638680C4600F00700884214D2EE
:10171000386820F0070020433860FFF707FE0646D0
:10172000386800F00700A04207D0FFF7FFFD801BDC
:101730000228F5D90320BDE8F081287880072CD451
:10174000287880063CD4287840064BD42878400777
:101750005AD42878000769D42878C00740F08880D8
:10176000386800F00700A04275D9386820F00700FB
:1017700020433860FFF7DAFD054600BF386800F007
:101780000700A04267D0FFF7D1FD401B02284FF0B1
:10179000030088BFBDE8F081F0E7A86801F0C8FD4C
:1017A000FFF7C4FD064600BF01F08AFC0028C7D140
:1017B000FFF7BCFD801B0228F6D90320BDE8F081AD
:1017C000686901F01DFBFFF7B1FD064601F070FCF2
:1017D0000028B8D1FFF7AAFD801B0228F6D9032004
:1017E000BDE8F081A86901F097FDFFF79FFD06466F
:1017F00001F07EFC0028A9D1FFF798FD801B02288C
:10180000F6D90320BDE8F081E86801F09BFDFFF701
:101810008DFD064601F05CFC00289AD1FFF786FD9D
:10182000801B0228F6D90320BDE8F0812869C0009A
:1018300001F092FDFFF77AFD064600BF01F050FC73
:1018400000287FF489AFFFF771FD801B0228F5D9CE
:101850000320BDE8F08100F03DF840F21801C2F22B
:1018600000010860FFF768FDFFF7E2FDBDE8F081C9
:10187000686848B1032822D0022825D101F0BCFBBA
:1018800030B90120BDE8F08101F0D0FC0028F8D08B
:10189000686801F0F3FDFFF749FD064641F288381C
:1018A00001F08CFB6968B0EB810F3FF459AFFFF793
:1018B0003DFD801B40454FF00300F1D9D6E701F014
:1018C00013FD0028E4D1DCE701F0E2FB0028DFD1C2
:1018D000D7E7000010B500F00FF8044601F056FB02
:1018E0003C2101EA900045F64C21C0F60001085861
:1018F000B4FBF0F010BD0000B0B542F20044C0F2FD
:10190000F40401F05BFB08280ED0042841D0B0B9E4
:1019100001F082FC3C2101EA900045F68C21C0F6E2
:1019200000010C582046B0BD01F060FB44F60001F8
:10193000C0F2E811012808BF21460846B0BD01F0F9
:10194000BBFC022815D0032809D101F04FFB44F657
:101950000001C0F2E811012818BF0C4609E001F0AF
:101960005BFC3C2101EA900045F68C21C0F60001A9
:101970000C5801F0A9FC444301F096FC012505EB4D
:101980001010B4FBF0F401F0A7FC05EB5070B4FBB1
:10199000F0F42046B0BD00002DE9F04381B0F8B16D
:1019A00004460078800667D501F008FB054601F083
:1019B00083FCBDB10C2D08BF012813D0E0690028BD
:1019C0003FD001F021FCFFF7B1FC054601F02EFCF1
:1019D000002846D1FFF7AAFC401B0228F6D93DE0BB
:1019E000012033E2E06948B3656A01F015FC014665
:1019F000606A8D4209D902F06DFAF8B9606A01F0A7
:101A000025FC206A01F018FC08E001F01FFC206AA8
:101A100001F012FC606A02F05DFA78B9FFF75AFF34
:101A200040F23001C2F2000140F218020968C2F22D
:101A3000000210600846FFF7FBFCC0B10126002041
:101A400016E001F0D9FBFFF771FC054601F0EEFB53
:101A500068B1FFF76BFC401B0228F7D90326002072
:101A600006E0606A01F0F2FB206A01F0E5FB01206C
:101A70000028304600F0EA812078C0072FD001F01E
:101A80009DFA054601F018FC082D0AD00C2D08BF60
:101A9000032806D06068B0F5803F08D101F09EFAB7
:101AA00007E0606808B1012015E0012612E001F0AE
:101AB0008DFA6568FFF73AFC002D054635D000BF6A
:101AC00001F09AFA0028EED1FFF730FC401B6428A1
:101AD000F6D9032600200028304600F0B781207890
:101AE000800734D501F06AFA054601F0E5FB042DC4
:101AF00020D00C2D08BF02281CD0E068002800F080
:101B0000848001F0B7FAFFF711FC054601F0C0FA36
:101B100090B9FFF70BFC401B0228F7D9032611E010
:101B2000FFF704FC401B6428D3D801F065FA0028B5
:101B3000F6D1B8E7E06820B1206901F0AFFA0127DB
:101B400001E001260027002F304600F07F81206849
:101B500010F0180F00F08180616999B110F0100049
:101B600020D101F017FBFFF7E1FB054601F01AFB5E
:101B700000283DD1FFF7DAFB401B02284FF003009D
:101B8000F4D963E101F016FBFFF7D0FB054600BF77
:101B900001F020FBD8B1FFF7C9FB401B0328F7D9A0
:101BA000032053E101F0FEFA002800F00D8101F05E
:101BB00009FBFFF7BBFB054601F00CFBD0BBFFF7B1
:101BC000B5FB401B03284FF00300F5D93EE101F0BF
:101BD000D9FAFFF7ABFB054601F0E4FA00283CD048
:101BE000FFF7A4FB401B02284FF00300F4D92DE1BE
:101BF00001F0E0FA01F0EEFA78B3FFF797FB401B33
:101C000003284FF00300F5D920E101F023FAFFF794
:101C10008DFB054601F03CFAB0FA80F100284FEA4E
:101C200051173FF490AFFFF781FB401B0328F1D31E
:101C3000032688E7A06901F0D5FA01F0A3FAFFF7BF
:101C400075FB054601F0AEFA38B1FFF76FFB401B9C
:101C500002284FF00300F5D9F8E0207840074DD472
:101C6000207840066AD4E06A00287CD040F20C0953
:101C7000C5F6000901F0A2F9D9F80010E26A022ABB
:101C800073D1226B01F00303934240F08080626BBA
:101C900001F0700393427AD1A26BC1F30623934201
:101CA00075D1E26B01F47813934270D1226C01F08C
:101CB000606393426BD1626C01F06041914266D1E6
:101CC0004FF0B048D8F80000800100F1D88001F052
:101CD000E3FAD9F8000040F08050C9F80000FFF79F
:101CE00025FB0446D8F8000010F0007540F0F580A0
:101CF000FFF71CFB001B0228F4D9EDE00C27C5F60A
:101D00000007D7F8F403C00510D4FFF7F3FBFFF783
:101D10000DFB0546D7F8F403C00507D4FFF706FB13
:101D2000401B02284FF00300F4D98FE0A06805287B
:101D30006FD0012872D101F0F3F973E0A06A002896
:101D400055D001F077F9FFF7F1FA054601F07AF97D
:101D500000287FF488AFFFF7E9FA401B02284FF014
:101D60000300F3D972E0002070E00C2825D001F0C8
:101D70008BFAFFF7DBFA04464FF0B0452868800184
:101D800074D5FFF7D3FA001B0228F7D913E00C280B
:101D900013D04FF0B047386840010ED401F074FA08
:101DA000FFF7C4FA0546386880016AD5FFF7BEFA26
:101DB000401B0228F7D9032600E001260025304603
:101DC000002D18BF002041E001F0E4F9FFF7AEFA62
:101DD000054600BF01F0E6F900287FF4E8AEFFF702
:101DE000A5FA401B02284FF00300F3D92EE001F0C2
:101DF00019F9FFF79BFA054601F024F900283FF492
:101E000032AFFFF793FA401B02284FF00300F3D9DB
:101E10001CE001F08DF901F083F903E001F070F9A5
:101E200001F076F9A568FFF781FA002D054641F229
:101E3000883716D001F08CF900287FF411AFFFF736
:101E400075FA401BB8424FF00300F3D9C0B201B09D
:101E5000BDE8F083FFF76AFA401BB8424FF0030079
:101E6000F4D801F075F90028F4D1F9E6D9F80000AA
:101E70004FF6FC71CEF6FE610840C9F8000001255E
:101E80009DE7D9F8000048F28C01C1F2C11104F1BC
:101E9000300708408ECFD4E910540843104340EA7D
:101EA0000320384328432043C9F8000001F0F4F927
:101EB000D9F8000040F08050C9F80000FFF736FA6A
:101EC00004464FF0B047386810F0007505D1FFF7B1
:101ED0002DFA001B0228F6D90326002D18BF012574
:101EE0006DE70000F0B581B0044690F820000128AD
:101EF0004FF002005FD00E46012184F8201084F8D4
:101F000021002068CA214162532141628068154640
:101F1000400518D42068816821F480618160C1681F
:101F200061F4906121F48061C160FFF7FFF9074619
:101F30002168C868400717D4FFF7F8F9C01BB0F54F
:101F40007A7FF5D90CE0FFF7F1F907462068C06801
:101F50004007DFD5FFF7EAF9C01BB0F57A7FF5D966
:101F60002168032203201FE04E61886820F00700EB
:101F7000886088682843886040F60000C5F6000045
:101F8000D0F8802042F40022C0F88020026842F499
:101F9000002202608868012240F4804088608868DE
:101FA00040F4806088600020FF234B62002184F8A9
:101FB000212084F8201001B0F0BD000010B528B336
:101FC000044690F8210028B9002084F8200020461B
:101FD00000F062F8022084F8210042F60C00C4F2FE
:101FE00000000068C0064ED42068CA214162532117
:101FF0004162204601F096FF216848B1FF20486207
:10200000042084F82100012000213EE0012010BDC1
:1020100088684FF6BF72CFF68F721040886004F167
:10202000040E23699EE801501843A3698A68184387
:1020300010438860C1F810E0086940EA0C4008616C
:10204000C86820F08000C860C86C20F00300C86435
:10205000E0696269CB6C10431843C86488688006E5
:102060000ED4204600F044F850B12068FF214162B0
:10207000042084F82100002084F82000012010BDF5
:102080002068FF2141620020012100291CBF01219D
:1020900084F8211010BD000010B594B004466846C5
:1020A0005021FEF780F8206842F60001C4F20001DA
:1020B000884201D014B010BD4FF4006000904FF47E
:1020C000807010906846FFF71FFA002818BFFEF7CF
:1020D0007DFB00F043FF00F0F7FD0320002100220C
:1020E000FFF7ECF90320FFF7E1F914B010BD000091
:1020F000B0B504460068C16821F0A001C160FFF7D7
:1021000015F905462068C068800607D4FFF70EF968
:10211000401BB0F57A7FF5D90320B0BD0020B0BDDB
:102120004EF21000CEF20000016841F002010160A1
:102130007047000070470000B0B582B004460068E8
:10214000416882684B0602F0400305D512F0010594
:1021500002D00BB9E16C05E00D0607D512F00205BF
:1021600004D0216D2046884702B0B0BD8D0664D5ED
:1021700012F4B07561D0BBB194F85D30032B08D177
:1021800000210191C168019180680190019802B01D
:10219000B0BD236E43F00403236600230193C3689C
:1021A000019383680193019B12F0200302F4807273
:1021B0000CD0236E43F00103236600230193836850
:1021C0000193036823F040030360019B42B1226E38
:1021D00042F0080222660022019282680192019A6E
:1021E000226E52B34268890722F0E00242604FF04B
:1021F000010284F85D201DD0416844F2452521F09C
:1022000003014160A06DC0F6000538B18563FEF79B
:10221000A9FE18B1206E40F040002066606D60B1EC
:102220008563FEF79FFE40B1206E40F040002066BF
:1022300002B0B0BD2046FFF77DFF02B0B0BD000088
:10224000002804BF01207047B0B50446406A20B1A1
:102250000020206104F1140005E06068B0F5827F81
:1022600003D004F11C00002101600025A56294F850
:102270005D0020B9204684F85C5000F04FF8022041
:1022800084F85D002068D4F80CE00268BEF5E06FC9
:1022900022F0400202604EF4006298BF0125B2F5C0
:1022A000706F1CBF0023A3624FEA053CD4E90135DF
:1022B000D4E9042103F4827305F404452B4402F0AD
:1022C00002021A44A36901F00101E569114403F413
:1022D0000072114405F03802256A114405F08002AD
:1022E000A56A114405F40052114301600421626A99
:1022F0000EF4706501EA1341636B45EA0C0502F0C8
:102300001002294303F008031143194341600020E0
:102310000121206684F85D10B0BD0000F0B585B0E5
:10232000006843F20001C4F2010100258842CDE9B2
:102330000355CDE90155009501D005B0F0BD00F081
:10234000D3FC012000F082FC0220022600F07EFC7B
:10235000C0206C46CDE9000605274FF0904021468D
:10236000CDE902550497FEF713FF0820CDE90006DA
:1023700040F20040C4F600002146CDE90255049722
:10238000FEF706FF22200F210022FFF797F82220F8
:10239000FFF78CF805B0F0BD80B502F081F880BD84
:1023A0004EF21000CEF20000016821F0020101603F
:1023B00070470000704700007047000080B5FEF7CE
:1023C000C3FF80BD7047000080B540F28C00C2F2B0
:1023D00000000068804780BD80B5202000F09AFC96
:1023E000FFF7F2FF80BD000080B500F00BF8012080
:1023F00000F08AFC80BD000080B5012000F0A8FC40
:1024000080BD000070B582B040F2C410C2F203007B
:1024100001F088F8A0B940F2C41440F29006C2F26C
:10242000030401ADC2F200062046294601F088F8F7
:10243000019831688847204601F074F80028F3D0ED
:1024400002B070BD80B5012000F0A2FC80BD00008C
:1024500080B500F0A5FC00F00BFD00F0B1FC40BF22
:1024600020BF00F057FD80BD80B500F01DFC00F0DE
:102470005BFC00F063FC2C20FFF718F82D20FFF721
:1024800015F880BD80B5082000F044FC40F228100B
:10249000C2F2000000688047082000F079FC80BD8F
:1024A00010B50446082000F067FC40B140F2281047
:1024B000C2F200000460082000F054FC10BDA047E8
:1024C000082000F065FC10BD10B540F60444022061
:1024D000C5F6000400F07EFC28B12068800702D415
:1024E00000F030F810BD012000F074FC28B1206825
:1024F000C00702D1FFF778FF10BD082000F06AFC8A
:10250000002808BF10BD2068000758BF00F050F831
:1025100010BD000080B5022000F0FCFB00F002F8C6
:1025200080BD000080B540F20000C2F20300C16827
:1025300040F25011C2F200010968C0680068884783
:1025400080BD000080B500F005F8022000F0DCFB43
:1025500080BD000070B582B040F2CC10C2F2030022
:1025600000F0E0FFA0B940F2CC1440F25416C2F2E1
:10257000030401ADC2F200062046294600F0E0FF48
:10258000316801988847204600F0CCFF0028F3D03E
:1025900002B070BD80B5022000F0DAFB80BD000003
:1025A00080B5022000F0F4FB022000F0DBFB80BDD0
:1025B00080B500F005F8082000F0A6FB80BD000003
:1025C000B0B582B040F2DC10C2F2030000F0AAFF06
:1025D00080B940F2DC14C2F2030401AD2046294662
:1025E00000F0AEFF019802F0E5F8204600F09AFFF7
:1025F0000028F3D002B0B0BD80B5082000F0A8FBE1
:1026000080BD000080B5022000F0B6FB48B940F65E
:102610000440C5F600000068800302D4FFF77AFF8B
:1026200080BD082000F0A8FB48B940F60440C5F67C
:1026300000000068000302D4FFF724FF80BD2020C3
:1026400000F09AFB002818BF80BD40F60440C5F694
:1026500000000068800258BFFFF7BEFE80BD00008A
:10266000F0B540F2042EC2F2000E0EF10C06002569
:102670000024EFF3108CEFF3108772B63778BFB1F8
:10268000671C18360135052C3C46F7D30624062C6A
:1026900011D007EB47050EEBC506012737738CF306
:1026A00010883061002072734EF835300C70F0BD28
:1026B0002F46062CEDD18CF310880120F0BD0000D0
:1026C00070B540F2BC36C2F200063168CA224A62D6
:1026D00053224A6242F60801C4F200010A6840F23D
:1026E000002342F020020A600A68C2F2000302F0EE
:1026F0000702C2F104021A708B6840F28B04C3F324
:1027000006430133C2F200042370896840F2641565
:102710006FF3DF310446481CC2F2000528804FF6F3
:10272000C060CFF6FF7011FB0300D1B2C8404FF676
:10273000FE71884240F24011C2F2000188BF4FF0A2
:10274000FF30088000F08AFB00F074FB3CB1306879
:10275000C06840053ED50320FEF7ACFE3AE040F2EB
:102760000120C2F200000121017040F24C10C2F2BF
:1027700000004FF0FF31016040F204216FF01700BC
:10278000C2F20001002200BF0B181830782883F82D
:102790002420F9D140F21A10C2F200000621017083
:1027A0003068816821F480618160C16861F4906162
:1027B00021F48061C16040F60C00C5F600004FF4C2
:1027C000002101600320FEF769FE3068816841F452
:1027D000804181603068FF21416203200321002293
:1027E000FEF76CFE0320FEF761FE70BD80B59047DA
:1027F00080BD00002DE9F04381B040F2BC37EFF31B
:102800001085EFF3108072B6C2F200073868CA2153
:10281000416253214162816840F2042221F48061C7
:10282000816040F21A11C2F200010C78C2F200027B
:1028300004EB440102EBC106337B022B18D140F2BA
:102840000120C2F2000052F83180D6F810900078D2
:1028500008B3707B012823D12046012102F020FA21
:1028600085F310887168204600F030F81DE000BF45
:10287000C1684907FCD5C16861F4906121F48061A9
:10288000C16040F60C00C5F600004FF40021016065
:1028900085F3108813E001F06FFB85F310880EE0DC
:1028A00085F31088204600F05FF83868CA2141623D
:1028B00053214162484621464246FFF797FF386858
:1028C000FF21416201B0BDE8F08300002DE9F04333
:1028D00081B040F20422044600EB4000C2F2000244
:1028E00002EBC0073E4616F80C0F0D46022802D137
:1028F000204600F039F8EFF31089EFF3108072B63C
:102900000320FEF7CFFD40F2BC38C2F20008D8F831
:102910000000CA214162532141620220307047F811
:10292000085F204647F8045C02F02CFF40F21A11C1
:1029300040F24912C2F20001C2F200020978127894
:102940008A4203D13968081A386001E001F014FBAB
:10295000D8F80000FF2141620320FEF7A7FD89F3AC
:10296000108801B0BDE8F08370B50446EFF3108520
:10297000EFF3108072B60320FEF794FD40F2BC36F0
:10298000C2F200063068CA2141625321416240F21E
:10299000042104EB4400C2F2000101EBC000007B03
:1029A000022838D12046002102F07AF940F21A10AC
:1029B000C2F200000078062824D142F60800C4F2D2
:1029C00000000068400504D5306800BFC1684907B1
:1029D000FCD43068816821F480618160C168490756
:1029E000FCD5C16861F4906121F48061C16040F65A
:1029F0000C00C5F600004FF4002101600320FEF733
:102A00004DFD08E040F24911C2F20001097881420F
:102A100018BF01F0B1FA3068FF2141620320FEF7D0
:102A200045FD85F3108870BDFEE70000704700008B
:102A300080B5FFF749FD80BD80B5FFF7E3FD80BDA0
:102A4000002101604FF03F1141603F2181607047DC
:102A500041F2DD3C41F2E1330021C0F6000CC0F64A
:102A6000000300BF00EB810201310629C2F804C057
:102A7000D361F7D17047000080B500F0E5F980BD63
:102A800080B500F013FD00F023FD00F019FD80BDBE
:102A90007047000081684FF6C072C5F6FF721140A2
:102AA0008160704781684FF6C072C6F6FF721140B0
:102AB00001F180518160704740F20830C5F2040096
:102AC000006800F0E070704700EB8100006E00F0DD
:102AD000F84070478068C0F3C0007047C06C00F0D9
:102AE000C000B0FA80F04009704700008068C0F371
:102AF00040707047806800F0010070478068C0F344
:102B000000707047C06800F0030070478068C0F331
:102B100080007047C06800F44060B0FA80F040095F
:102B200070470000C1F3012300EB8300D0F830C0F0
:102B300001F01F011F238B40C2F384622CEA0303C0
:102B400002FA01F11943016370470000C1F34063C9
:102B500000EB8300D0F814C0C1F3045107238B406D
:102B60002CEA030302FA01F11943416170470000A6
:102B700080B54FF6FF7ECB43D0F8B0C0C0F2070E51
:102B800002F0180263EA0E032EFA02F203EA0C03C3
:102B900011401943C0F8B01080BD000040F2083168
:102BA000C5F204010A6822F47C12104308607047E1
:102BB00040F20831C5F204010A6822F0E0721043C5
:102BC0000860704700EB8100D0F860C04FF2000150
:102BD000C0F2FF3102F0F84201EA0C011A4311433E
:102BE00041F000410166704700EB8100016E21F069
:102BF000004101667047000081B04821C5F6000120
:102C00000A6802430A60096808400090009801B011
:102C10007047000081B04C21C5F600010A680243EC
:102C20000A60096808400090009801B070470000F1
:102C300081B04C21C5F600010A6802430A600968A8
:102C400008400090009801B07047000081B04C210E
:102C5000C5F600010A6802430A600968084000904E
:102C6000009801B07047000081B05020C5F6000008
:102C7000016841F480110160006800F48010009048
:102C8000009801B07047000081B05020C5F60000E8
:102C9000016841F400210160006800F40020009008
:102CA000009801B07047000081B05020C5F60000C8
:102CB000016841F480110160006800F48010009008
:102CC000009801B07047000081B05820C5F60000A0
:102CD000016841F480610160006800F48060009048
:102CE000009801B07047000081B06020C5F6000078
:102CF000016841F480510160006800F48050009048
:102D0000009801B07047000040F60841C5F6000188
:102D10000860704740F60441C5F600010A6842EABF
:102D2000004008607047000040F60040C5F6000013
:102D3000016841F0010101607047000040F6004069
:102D4000C5F60000016841F4803101607047000061
:102D500040F60441C5F600010A6822EA0000086056
:102D60007047000040F60441C5F600010A6822EAF7
:102D7000004008607047000040F60C41C5F60001B5
:102D800009680140081AB0FA80F040097047000055
:102D900040F608410004C5F60001086070470000D5
:102DA00081B040F25010C5F60000016841F4801176
:102DB0000160006800F480100090009801B0704736
:102DC00040F6D400C5F60000016841F400710160CE
:102DD0007047000040F61C41C5F60001096801403B
:102DE000081AB0FA80F040097047000040F28040B5
:102DF000C5F600000168042262F302010160704719
:102E000040F20811C5F600010A6822F0F0021043F2
:102E10000860704742F20000CEF2040000686FF3D1
:102E20001F30704742F20000CEF204000068000C30
:102E30007047000040F68000C5F60000016841F4CC
:102E4000002101607047000040F69000C5F60000C8
:102E5000016841F0500101607047000040F6000039
:102E6000C5F60000016841F40021016070470000D0
:102E700040F62000C5F60000016841F400710160D1
:102E80007047000047F28450C1F6FF700078704729
:102E900047F28450C1F6FF700068000A70470000D6
:102EA00047F28050C1F6FF700068704741F28041E0
:102EB000C5F6000151F8200040F20041C8F20001BF
:102EC000401A18BF0120704741F20041C5F60001C9
:102ED0004FF4806241F82020704700004EF61050F9
:102EE000CEF20000016841F004010160704700006B
:102EF0004EF61050CEF20000016821F0040101608E
:102F00007047000040F21840C5F600001F21016024
:102F10007047000040F20C40C5F60000016841F423
:102F2000004101607047000040F28840C5F6000093
:102F30000068C0F3C030704740F28840C5F600001A
:102F40000068C0F38020704740F20041C5F60001E0
:102F50000A6822F007021043086070479020C5F607
:102F60000000016841F40041016070479020C5F6FF
:102F70000000016841F480310160704740F20810A0
:102F8000C5F6000000680001C0B270470820C5F611
:102F90000000006800F0F000704700009020C5F6C7
:102FA0000000006800F44070704700000820C5F67B
:102FB0000000006800F00C00704700000820C5F613
:102FC0000000006800F00C00704700004FF0B040B7
:102FD000016821F480310160704700004FF0B0407B
:102FE000016841F480310160704700004FF0B0404B
:102FF0000068C0F3005070474FF0B0400068C0F365
:10300000404070479C214CF6FE22C5F60001CCF6EC
:10301000FE220A600A6822F47C5242EA002008601C
:10302000704700009820C5F60000016821F00101FA
:10303000016070479820C5F60000016841F0010169
:10304000016070479820C5F600000068C0F340009A
:10305000704700004FF0B040016821F480710160BA
:10306000704700004FF0B040016841F4807101608A
:10307000704700004FF0B040016841F4807101607A
:10308000704700004FF0B0400068C0F380207047E8
:103090004FF0B0400068C0F3802070470421C5F6AF
:1030A00000010A6822F0FE4242EA006008607047B0
:1030B00040F20810C5F600000068C0F340407047B9
:1030C0000820C5F600000068C0F30040704700000B
:1030D0000820C5F600000068C0F3404070470000BB
:1030E0000820C5F600000068C0F38040704700006B
:1030F00040F20810C5F600000068C0F300407047B9
:103100009020C5F60000016821F0010101607047C0
:103110009020C5F60000016821F0040101607047AD
:103120009020C5F60000016841F001010160704780
:103130009020C5F60000016841F00401016070476D
:103140009020C5F60000006800F001007047000004
:103150009020C5F600000068C0F3400070470000F2
:103160009020C5F600000068C0F3400070470000E2
:103170009020C5F600000168022262F3C4010160DC
:10318000704700009420C5F60000016821F001019D
:10319000016070479420C5F60000016841F001010C
:1031A000016070479420C5F600000068C0F340003D
:1031B000704700009420C5F60000016821F004016A
:1031C000016070479420C5F60000016841F00401D9
:1031D000016070479420C5F600000068C0F3C0008D
:1031E000704700009421C5F600010A6822F470625D
:1031F00042EA0020086070474FF0B040016821F0BB
:1032000001010160704700004FF0B040016841F0DB
:1032100001010160704700004FF0B040006800F00D
:10322000F000B02828BFB020704700004FF0B04039
:103230000068C0F3400070470421C5F600010A6829
:1032400022F47F4242EA0020086070474FF0B0410C
:103250000A6822F0F0021043086070474FF0B04057
:10326000016821F080610160704700004FF0B040BC
:10327000016841F080610160704700004FF0B0408C
:103280000068C0F3C06070474FF0B040016821F0A3
:1032900080710160704700004FF0B040016841F05C
:1032A00080710160704700000C20C5F600000068C6
:1032B00000F07000704700000C20C5F600000068A8
:1032C00000F00300704700000C20C5F60000006805
:1032D000C0F30620704700000C20C5F6000000680F
:1032E00000F06040704700004FF0B0400068C0F34D
:1032F000406070479020C5F60000016821F48031DD
:10330000016070478821C5F600010A6822F040522A
:10331000104308607047000040F20811C5F6000134
:103320000A6822F00F0242EA10100860704700009D
:103330000821C5F600010A6822F0F0021043086077
:10334000704700000821C5F600010A6822F4E06217
:1033500010430860704700000821C5F600010A68A4
:1033600022F4605210430860704700008821C5F6BF
:1033700000010A6822F040621043086070470000B4
:103380000820C5F60000016841F400410160704763
:103390008821C5F600010A686FF47F2363EA1013E1
:1033A0001A4000F47F4042EA0010086070470000B5
:1033B0008821C5F600010A684FF6FF7363EA00032F
:1033C0001A4042EA00400860704700008821C5F6B4
:1033D00000010A6822F44062104308607047000050
:1033E0009421C5F600010A6822F4404210430860A7
:1033F000704700008821C5F600010A6822F04042AB
:1034000010430860704700009021C5F600010A686B
:1034100022F4407210430860704700008821C5F60E
:1034200000010A6822F4400210430860704700005F
:103430002420C5F60000016821F0030101607047F7
:103440002421C5F600010A6822F003021043086037
:10345000704700002421C5F600010A6822F03002FE
:1034600010430860704700000820C5F6000001689E
:10347000012262F301010160704700000821C5F6D6
:1034800000010A6822F00302104308607047000040
:103490008821C5F600010A6822F003021043086083
:1034A0007047000080B5FFF761FF80BD42F6240041
:1034B000C4F20000CA21016053210160704700007E
:1034C00042F62400C4F20000FF21016070470000B2
:1034D00042F60800C4F20000016821F00701016013
:1034E000704700000060406070470000EFF31082FA
:1034F000EFF3108372B6036848600B6001600B68DD
:10350000596082F310887047EFF31082EFF3108355
:1035100072B6436808604B6041604B68196082F383
:1035200010887047EFF31081EFF3108272B60268D3
:1035300081F31088101AB0FA80F04009704700003B
:1035400010B5EFF31084EFF3108272B602680A60D0
:10355000006800F003F884F3108810BDEFF31081C9
:10356000EFF3108272B6026843681A600068436025
:1035700081F310887047000080B540F2042C01EB05
:103580004102C2F2000C0CEBC20212F815EFBEF1C0
:10359000060F1EBF0EEB4E030CEBC303187500EBBA
:1035A00040030CEBC30383F815E01975107080BD60
:1035B00080B540F21A12C2F2000212788A4210D18B
:1035C00040F2042300EB4002C2F2000303EBC2020C
:1035D000517501EB410103EBC10101F114021070BF
:1035E00080BD40F2042C01EB4102C2F2000C0CEB56
:1035F000C20212F814EF0EEB4E030CEBC303587526
:1036000000EB40030CEBC303597583F814E0107012
:1036100080BD00007047000070470000B0B586B064
:1036200040F29C200021C2F20000C5F204010024F7
:103630004FF4C0120123042580E816000521CDE9CE
:103640000444CDE90244CDE90044C0E903434561A7
:103650000483C16180F82040C0E90A4480F830400A
:10366000446380F83840FDF749FB002818BFFDF798
:10367000ADF82020C1F2F040009006200190022019
:1036800002907F20CDE9030540F29C20C2F20000A9
:1036900069460594FDF7BCF8002818BFFDF796F8B9
:1036A0004020C1F6201000900C20019040F29C2098
:1036B000C2F200006946FDF7ABF8002818BFFDF71D
:1036C00085F88020C1F6505000901220019040F201
:1036D0009C20C2F200006946FDF79AF8002818BF46
:1036E000FDF774F840F20010C2F28010009018202C
:1036F000019040F29C20C2F200006946FDF788F874
:10370000002818BFFDF762F840F20020C2F2B05066
:1037100000904FF48070019040F29C20C2F20000B3
:103720006946FDF775F8002818BFFDF74FF806B099
:10373000B0BD000080B544F21000C5F600004FF4A3
:1037400000410160FCF7C2FF80BD000080B500F0C1
:1037500051FF00F047FF40F2BC31C2F200010020EF
:10376000FEF7AEFF01F07AFE80BD000080B54FF09D
:10377000FF3001F081F980BD80B50420FFF73CFAED
:103780000120FFF739FA0B2000210022FDF796FEF9
:103790000B20FDF78BFE80BD2DE9F04F85B0002694
:1037A00004200496CDE90266CDE90066FFF732FAFF
:1037B0008020FFF72FFA02204FF00208FFF72AFAC5
:1037C00001204FF00109FFF725FA1020FFF722FA38
:1037D0004FF090404FF4C46100224FF4C46BFDF7EA
:1037E0009FFD40F20044C4F60004204691210022CF
:1037F000FDF796FD08206D460090032704F5C050A4
:103800002946CDE90176FDF7C3FC0E204FF4807AFE
:10381000049020462946CDE900A8CDE90266FDF7CF
:10382000B7FC40F26620CDE9000720462946029603
:10383000FDF7AEFC4FF090402946CDE900B9CDE947
:103840000266FDF7A5FC4FF40410CDE901094FF025
:1038500090402946CDF800A0FDF79AFC9120CDE9D3
:10386000000920462946CDE90266FDF791FC1020AB
:10387000CDE9000704F5406029460296FDF788FC73
:103880004FF41840CDE900074FF0904029460296CA
:10389000FDF77EFC17200F210022FDF70FFE1720F9
:1038A000FDF704FE05B0BDE8F08F000080B540F2E2
:1038B000803040F60041C2F20000C5F60001016010
:1038C000FDF750FD002818BFFCF780FF80BD000009
:1038D0007047000080B540F2BC3042F60001C2F2F1
:1038E0000000C4F2000100220F2347F6FF7C80E8AD
:1038F0000E10C0E90422C0E90622FEF75FFB002893
:1039000018BFFCF763FF40F2BC30C2F20000002198
:103910000022FEF7E7FA002818BFFCF757FF80BD2A
:1039200070B540F2E03043F20001C2F20000C4F290
:1039300001014FF4827200234FF4E06C4FF0020E4D
:10394000012480E80E5000F114014FF40075202688
:1039500070C10721C0E90833C0E90A31C0E90C335E
:10396000FEF76EFC002818BFFCF730FF70BD0000AA
:10397000FEE70000FEE7000000F0070080F007030C
:10398000042B28BF04234FF0FF3C03380CFA03F349
:1039900038BF0020994381400CFA00F022EA000071
:1039A0000843704780B540F25811C2F2000109681F
:1039B00028B1002908BF80BD0120884780BD0029AB
:1039C000FCD00020884780BD7047000047F2000C03
:1039D000C1F6FF7C0CF57E73DA799C45A3F10801F2
:1039E00002D082420B46F7D10831824218BF002133
:1039F0000846704710B50446FCF7BCFB204610BDD6
:103A000010B51346CAB219460446FCF7C5FB20465A
:103A100010BD000010B543F67932C0F60002042054
:103A20000021002401F006F840F2F972C0F600020D
:103A30001020002100F0FEFF40F24810C2F200000A
:103A4000047010BD80B5007801280DD0002818BF83
:103A500080BD40F24810C2F2000001210170102028
:103A6000002101F0CBF880BD40F24810C2F2000006
:103A70000021017080BD0000704700004FF64262D7
:103A800090421CBF9220704780B582B08C4640F2B5
:103A90003401C2F200010888898800220A23CDF887
:103AA00000C001F02BFC02B080BD00002DE9F04FFA
:103AB0008BB043F61940C0F6000000F041FC4EF216
:103AC0008F50CDF2B350079047F62E70C9F64A00DA
:103AD000089044F62A00CCF67A4009904FF64060F0
:103AE00040F234050DF11C090A90C2F200050220D3
:103AF0004946012206230095012601F05BFB4FF6A3
:103B0000416029460A9031F8020B4EF6195A42F2EA
:103B1000ED1444F241574FF000080622CAF6826ABB
:103B2000C9F64C54C8F622674FF00A0BCDE90028BD
:103B3000059102214A460A23CDF81CA00894099752
:103B4000CDE9026B049601F0C7FA4FF6426135F8F1
:103B5000040B0A911021CDE9001802214A460A23DC
:103B6000CDE907A40997CDE9026B0496059501F00C
:103B7000B3FA0BB0BDE8F08F80B500F0EBFE40F279
:103B80004811C2F20001097840F20802C2F20002B4
:103B90000129107207D140F20801C2F200014FF66C
:103BA0004260FFF76BFF0120002100F00FFF0120B2
:103BB000012100F0F5FE80BD80B5FEF7F1FBFCF7BA
:103BC000E3FDFFF79FF90320FFF7BEF9FFF786F942
:103BD00030BF80BD80B5FEF7E3FBFFF789F930BF4A
:103BE00080BD000080B5FEF7DBFBFCF7CDFD0220B9
:103BF000FFF7AAF9FFF772F930BF80BD80B5FEF775
:103C00008FFA80BD80B5FEF78BFA80BD80B5FCF7DA
:103C1000E3FDFEF785FA80BD10B584B04178FF2939
:103C200001D000241AE0B0F8031040F6014291429E
:103C300013D140F23402C2F200029388B0F80710A8
:103C400002338B420DD1407BC0071BD10124684653
:103C50008DF80040FFF710FF00E00024204604B07C
:103C600010BD528801328A4214D1C27A0D3003212C
:103C7000019068468DF800108DF80820FFF7FCFED3
:103C80000024EBE700208DF800006846FFF7F4FE03
:103C90000124E3E70024E1E77047000010B594B089
:103CA0006C4620465021FCF77EFA4FF440500090BD
:103CB0004FF4804011900220129010201390204663
:103CC000FDF722FC002804BF14B010BDFCF77EFDF8
:103CD000F0B581B00446FFF7C1FAFDF727FB0546B2
:103CE000FFF7CCFA064638B1FDF720FB401B03284E
:103CF000F6D303253EBB01E0002526BB1027C5F601
:103D000000073868D4E9001220F4FE4040EA0120A0
:103D10003860386820F4781010433860FFF7A6FA4E
:103D2000FDF704FB064600BFFFF7A8FA012805D0FF
:103D3000FDF7FCFA801B0328F6D303251DB9206983
:103D4000396808433860284601B0F0BDF0B581B04D
:103D50000446FFF783FAFDF7E9FA0546FFF78EFA06
:103D6000064638B1FDF7E2FA401B0328F6D30325D7
:103D70003EBB01E0002526BB1027C5F600073868CA
:103D8000216820F4FE4040EA0120A26838603868CB
:103D900020F0606010433860FFF768FAFDF7C6FA5C
:103DA000064600BFFFF76AFA012805D0FDF7BEFA04
:103DB000801B0328F6D303251DB920693968084301
:103DC0003860284601B0F0BDF0B581B00446FFF779
:103DD00045FAFDF7ABFA0546FFF750FA064638B14B
:103DE000FDF7A4FA401B0328F6D303253EBB01E0F0
:103DF000002526BB1027C5F600073868216820F487
:103E0000FE4040EA0120E2683860386820F06040F7
:103E100010433860FFF72AFAFDF788FA064600BF1C
:103E2000FFF72CFA012805D0FDF780FA801B032844
:103E3000F6D303251DB92069396808433860284640
:103E400001B0F0BD70B5B1F5007F09D100211DA210
:103E500052F8213083420ED201310429F8D108E012
:103E6000002115A252F82130834204D201310329E6
:103E7000F8D1002505E045F65440C0F6000050F8A2
:103E8000215044F20006C5F60006306820F0070015
:103E900028433060FDF74AFA044600BF306800F05E
:103EA0000700A84206D0FDF741FA001B0328F5D30E
:103EB000032070BD002070BD060000000C00000053
:103EC0001000000012000000240000003600000076
:103ED00040000000B0B53C2445F68C2204EA900175
:103EE000C0F600021144B02888BF02F12C010D6811
:103EF000FFF744F845F64C2104EA9000C0F60001B3
:103F000008584DF68361B5FBF0F0C4F21B31A0FBFD
:103F100001018C0CFDF7E6FA01462046FFF792FFFF
:103F2000B0BD0000B0B504460068C168490611D4B0
:103F30004FF0FF31C160FDF7F9F905462068C06810
:103F4000400607D4FDF7F2F9401BB0F57A7FF5D9AA
:103F50000320B0BD0020B0BD80B5FEF74BFC80BD96
:103F600042F62801C4F20001086880B20A680346DC
:103F700090B28342FAD1704770B542F60800C4F29D
:103F800000000068400540F2BC30C2F2000004D5D9
:103F9000016800BFCA685207FCD4006840F20424DC
:103FA0008168C2F2000421F48061816040F21A103D
:103FB000C2F20000057805EB450004EBC0008668FE
:103FC00000F076F8864201D200210BE040F2401169
:103FD000C2F200010A880244964202D909880022EE
:103FE00001E0311A012240F20123C2F20003062D42
:103FF0001A700FD005EB450204EBC202134653F8CA
:10400000086F864226BF1E68361A00261E60557D40
:10401000062DEFD188B200F001F870BDB0B50446AE
:1040200001280BD09CB9FFF79BFF40F24C11C2F264
:10403000000108600320FDF73DFAB0BD40F200200A
:10404000C2F200000078012818BF013C00E0013CEA
:1040500040F2BC35C2F20005286800BFC1684907BC
:10406000FCD5C16861F4906121F48061C16040F6C3
:104070000C00C5F600004FF4002101600320FDF79D
:104080000DFA42F61400C4F200000168C4EA01010E
:104090000160FFF765FF40F24C11C2F200010860B9
:1040A0002868816841F480618160AFF30080B0BD11
:1040B00010B540F24C14C2F20004206801300DD05B
:1040C000FFF74EFF216881420BD240F26411C2F229
:1040D000000109882268081A104404E0002080B218
:1040E00010BD2168081A40F28B01C2F2000140F2B3
:1040F00000220978C2F2000212784843D04080B210
:1041000010BD00000021B0F5803F38BF01214FEA0B
:10411000011138BF0004B0F1807F3CBF08310002BC
:10412000B0F1805F3CBF0431000145F6CC22000FA6
:10413000C0F60002105C81F01F01081AC0B270477F
:1041400080B584B000F10C026B464FF666402E211C
:1041500001F0C8FB9DF80E0004B080BD80B584B0AE
:1041600002466B464FF67540102101F0BBFB9DF8EF
:104170000E0004B080BD000080B584B000F10C02D8
:104180006B464FF668400F2101F0ACFB9DF80E0026
:1041900004B080BD70B544F23C01C5F60001096869
:1041A0000022C2F2030261F38F02136845F2B96183
:1041B000D3F800C0CAF646118C45014609D103F177
:1041C000140C03F1180E03F11C0003F10C02103360
:1041D00008E0136803F1100C03F1140E03F118004A
:1041E0001A1D08330668DCF80000DEF80040050EF2
:1041F0000D70050C4D70050A8D70C5B200F00F00F2
:104200000871200E12684871200C8871200AC8714C
:10421000100E1B688872100CC872100A0873180EF2
:104220004873180C2D0988730020CD700C724E72E3
:10423000CB7370BD80B540F2E030C2F20000FDF7F4
:104240007BFF80BD80B5806A0021A0F84610C18741
:10425000FDF770FF80BD0000B0B582B00446407825
:10426000FF281DD03E2829D0052854D1A08840F22F
:104270009404C2F20004E18A0125884202BF0020B2
:10428000E08284F880000120FCF7B6F840F22C10A0
:10429000E18AC2F2000005704180FFF7D3FB3AE0EB
:1042A000B4F8030040F60E41884234D140F2940045
:1042B000C2F20000C08A00F0DBFF2CE0E0780128A9
:1042C0000DD00C2827D140F29400C2F20000C08A21
:1042D0000DF107010DF1060201F016F91BE040F2A5
:1042E0009405C2F2000595F88100FEF73DFB95F8B4
:1042F00080000521042808BF0621B4F8052040F2FB
:104300002C1085F88010C2F200000021EA820170B2
:104310004280FFF797FB012002B0B0BD80B540F2AC
:104320004C00C2F200000021017740F26C00C2F2A2
:104330000000017000F00EF880BD00007047000022
:1043400040F24C01C2F200010A7F41F82200501CE9
:104350000877704780B5FCF7ADF8FCF7C7F8FCF7B5
:1043600091F9FCF7BFF9FCF707FAFEF723F8FEF71F
:1043700023F8FEF727F8FEF759FBFEF789FB00F05C
:104380002DFAFFF749F9FFF791FB00F0D1FCFFF799
:104390001BFBFCF7ADF8FFF73DF9FFF7CFFF80BD42
:1043A00070B504464078FF2807D00020022820D0AE
:1043B00008BB2046FFF750FF70BD20794FF44061E5
:1043C000B1EB002F4FF00000F0D140F24C05C2F2EB
:1043D0000005297F0029E9D0002600BF55F82610E6
:1043E000204688470028E1D1297F01368E42F5D347
:1043F000DCE7002070BD012070BD000070470000A8
:1044000080B50B4640F24801C2F200010968A1F8EC
:104410000900CB7201F10C0011461A46FBF7AAFE07
:1044200040F20030C2F200000269002000219047F3
:1044300080BD000070B582B040F23810C2F20000BA
:10444000FFF770F8B0B940F2381440F20006C2F23B
:10445000000401ADC2F2030620462946FFF770F8BA
:10446000306901990069FFF74FF82046FFF75AF8C5
:104470000028F1D002B070BD7047000080B5FEF793
:10448000F1FD00BFFEF7FEFD0028FBD0FEF7ECFFBC
:10449000FEF7CEFFFEF78AFD0428FBD180BD0000A9
:1044A000B0B501380024B4EB106F1CBF0120B0BDC3
:1044B0004EF21005CEF2000568604FF0FF300F217C
:1044C00000F084FC0720AC6028602046B0BD0000EE
:1044D00080B5FCF787FF80BDF0B59BB009AC2046E6
:1044E0004821FBF760FE00250C260895CDE906550E
:1044F000CDE90455CDE90255C5F60006306801271F
:1045000020F070003060306867F301003060FCF725
:10451000F1FFFEF72DFED6F8F40367F34A20C6F844
:10452000F403D6F8F40300F4C0600190019827204A
:1045300009904FF48030CDE90A074FF480700C9059
:1045400040200D90602012902046109711951495F0
:10455000FDF722FA80B96F2002900220CDE9030511
:1045600002A80121CDE90555CDE90755FDF7C0F8B1
:10457000002804BF1BB0F0BDFCF728F94EF68850A8
:10458000CEF2000001684FF4E02241F470010160B6
:104590004FF0B04001684FF6FB6341F0010101604C
:1045A0009421C5F6000141F88C2C0268CFF6F62361
:1045B0001A4002600A6822F005020A604A6822F086
:1045C00001024A6041F20002C2F2042241F8882C42
:1045D00041F8842C026822F480220260002041F815
:1045E0007C0C704780B5FEF7CBFE00F0CDF9FEF7EE
:1045F000FDFB80BD80B5FEF73FFAFEF741FA80BDB6
:10460000B0B540F2C415C2F2030504462846FEF7D1
:1046100069FF40F20000C2F203004068D4E90212D0
:1046200040F65823C2F2030380E82A00C260FDF777
:10463000E3FE40F29000D4E90012C2F200000160F3
:1046400040F28C01C2F2000100200A60B0BD0000FF
:1046500080B540F20000C2F20300416801220968FF
:104660000A724068FDF7EEFE002080BD80B5FDF7C0
:10467000EFFE80BD80B540F2000040F23411C2F27E
:104680000300C2F20301016040F25411C2F20301BF
:10469000416040F26411C2F20301816040F2741182
:1046A000C2F20301016240F27C11C2F203014162D5
:1046B00040F28411C2F20301C16040F28C11C2F2D7
:1046C0000301016140F2A811C2F20301416140F20D
:1046D000AC11C2F20301816140F2B811C2F20301D0
:1046E000C161FDF7C1FE80BD80B5014640F23810C2
:1046F000C2F20000FEF708FF44F23540C0F60000A9
:10470000FDF7CEFE80BD000070B540F2D416C2F2B7
:10471000030604463046FEF7E5FE40F23810C2F2CA
:104720000000FEF7DFFE40F20000C2F20300006965
:1047300040F26811C2F20001251D08602ECDC0E9CB
:10474000022322680661C0E900216169C0E90551C0
:1047500070BD0000B0B540F2CC15C2F203050446AE
:104760002846FEF7BFFE40F20000C2F20300C06818
:10477000A168C0E90015FDF70DFF40F25010D4E923
:104780000012C2F20000016040F25411C2F20001B6
:1047900000200A60B0BD000080B540F20000C2F207
:1047A0000300C168102209680A72C068FDF7F8FEAC
:1047B000002080BD7047000010B540F2DC14C2F24A
:1047C00003042046FEF78EFE40F20000C2F2030012
:1047D00040690460FDF710FF10BD00007047000045
:1047E00080B5002001F04CF880BD000010B50146F6
:1047F000407A00F0FE000E2809D140F23010C2F2DB
:104800000000FEF781FE002000F05EFE10BD40F2C9
:104810003C04C2F200042046FEF776FE204600F07B
:10482000D7FE10BD10B584B0044640F23010C2F27D
:104830000000FEF757FE40F24800C2F2000004609C
:1048400040F23C00C2F20000FEF74CFE40F20031A4
:10485000C2F20001096840F24400C2F200000122E5
:10486000027039B144F2ED70C0F600000090684665
:104870000294884704B010BDB0B584B0044640F23D
:104880007C00C2F20000046040F27000C2F200003E
:10489000FEF728FE01200125FBF7F6FE40F244401A
:1048A000C2F20000016840F27800C2F20000057018
:1048B00061B144F2E170C0F60000019044F6D1000D
:1048C000C0F60000029001A80394884704B0B0BD70
:1048D00010B540F27004C2F2000401462046FEF713
:1048E00013FE204600F0ECFF10BD0000B0B5EFF362
:1048F0001084EFF3108072B640F26010C2F2000034
:10490000006850B145F6DC20C0F60000D0E9001583
:104910008847A84784F31088B0BD40F24410C2F223
:104920000000006850B145F6DC20C0F60000D0E978
:1049300002158847A84784F31088B0BD45F6DC20EF
:10494000C0F60000D0E904158847A84784F3108812
:10495000B0BD0000EFF31081EFF3108072B640F2AB
:104960006010C2F20000026840F24410C2F200007F
:1049700003680120002B08BF0220002A18BF002076
:1049800081F310887047000040F26010C2F200000E
:104990000021016040F24410C2F200000160704743
:1049A000EFF31082EFF3108372B640F24413C2F2B9
:1049B000000321B1012906D11968084302E01968F2
:1049C00021EA0000186082F310887047EFF310822C
:1049D000EFF3108372B640F26013C2F2000321B10C
:1049E000012906D11968084302E0196821EA00008C
:1049F000186082F31088704780B54FF0FF3000F0E8
:104A00003BF880BD80B5FFF771FF80BDEFF31081EB
:104A1000EFF3108272B640F21C02C2F20002136879
:104A200023EA0000106081F310887047704700008F
:104A300070470000B0B51446EFF31085EFF3108116
:104A400072B6FFF75FFB40F26C11C2F2000141F851
:104A5000204085F31088B0BDEFF31081EFF3108292
:104A600072B640F21C02C2F20002136818431060D2
:104A700081F31088704700002DE9F04F81B040F2BB
:104A80001401C2F200010A6840F2FC17104040F223
:104A9000201B40F21C0A00920860C2F20007C2F21A
:104AA000000BC2F2000A3E68DBF80020DAF80010C2
:104AB00040F22413C2F2000300EA01051B683542EC
:104AC00040F21C16C2F200065BD01A4059D140F2E7
:104AD000EC1940F26C18C2F20009C2F2000800BFE3
:104AE00008404D4655F8081B0842FBD055F8081CF5
:104AF00055F8042C0840104204BF4FF0FF3145F830
:104B0000041C55F8041C0840FFF7FCFA3060012132
:104B100055F8042C01FA00F022EA000045F8040CD4
:104B2000EFF31080EFF3108272B632683D6801FA3D
:104B300002F3DA4325EA03033B6000BF59F8313042
:104B4000134049F8313001394B1CF7D180F31088FC
:104B5000306858F82000804740F22410C2F200006C
:104B60003D68DBF80020DAF80010036840F214001A
:104B7000C2F20000006800EA01042C4201D01A4091
:104B8000AED04FF0FF303060FFF752FFEFF31085EB
:104B9000EFF3108072B640F214033968DBF80000BE
:104BA000DAF80020C2F200031B681140194208D154
:104BB00040F22411C2F200010968014208BFFFF768
:104BC00021FF85F31088FFF731FF40F214000099B0
:104BD000C2F20000016001B0BDE8F08FEFF3108178
:104BE000EFF3108272B640F22012C2F20002136894
:104BF0001843106081F310887047000040F2FC1CDD
:104C0000EFF31082EFF3108372B6C2F2000CDCF8FF
:104C100000300343CCF8003040F2EC1CC2F2000C30
:104C20005CF8313018434CF8310082F3108870473B
:104C30002DE9F04740F21C1840F224190446C2F254
:104C40000008C2F2000940F22017D8F80060D9F835
:104C500000A0C9F80040C2F200073968B6F1FF357C
:104C60004FF0010018BF00FA06F5214207D100BF3E
:104C700028462146FFF7C0FE38682042F8D0C8F821
:104C80000060EFF31080EFF3108172B63968A14332
:104C9000396080F31088C9F800A0BDE8F0870000F3
:104CA000B0B540F21A1CC2F2000C9CF8002040F291
:104CB000042E8242C2F2000E0ED19CF8002040F277
:104CC0004913C2F200031A7000EB40020EEBC2025D
:104CD000527D8CF8002014E000EB40020EEBC20283
:104CE00012F8144F5378557804EB44040EEBC404C7
:104CF000062B657505D0127803EB43030EEBC30357
:104D00001A7500EB40000EEBC0000122027300296F
:104D10009CF8000008BF062800D0B0BD40F24C103F
:104D2000C2F200004FF0FF310160B0BDFEE70000AD
:104D300070470000002848BF704700F01F010122A3
:104D400002FA01F14EF280224009CEF2000242F84E
:104D500020107047002848BF704700F01F01012253
:104D600002FA01F14EF280124009CEF2000242F83E
:104D70002010BFF34F8FBFF36F8F7047002848BFDD
:104D8000704700F01F01012202FA01F14EF20012F9
:104D90004009CEF2000242F8201070474EF60C5047
:104DA000CEF200000068C0F302207047002848BF20
:104DB000704700F01F01012202FA01F14EF20022B9
:104DC0004009CEF2000242F8201070474EF614530C
:104DD00000F00F02CEF2000309011A4400F1604313
:104DE000B0F1FF3FC8BF03F5644211707047000087
:104DF0004EF60C51CEF200010A684FF6FF031A403E
:104E000060F30A2242F0806040F0FD700860704755
:104E100010B588B0002002AC8DF8070020460021B4
:104E20001822FEF7EDFD3F20C0F2920002900DF136
:104E300007000690012007902046002100F0FAFBB1
:104E40009DF80710002848BFFF21084608B010BD94
:104E50002DE9F043C9B001AC15460E460746204681
:104E60000021072298464FF00709FEF7C9FD8DF88B
:104E70000F5043AD2846002118228DF80D708DF893
:104E80000E60FEF7BDFD3F20C0F28A0043900DF199
:104E90000D004590032046A981E811022846002113
:104EA00000F0C8FB002805D49DF8040030B149B0DB
:104EB000BDE8F083FF2049B0BDE8F083BDF80510E0
:104EC0005198509AA8F80010BDF80710BDF80930A5
:104ED00011800380002049B0BDE8F083F0B5C7B071
:104EE000DDE94E4EDDF840C1DDE94C658DF80B4043
:104EF00041AC00278DF805008DF806108DF80720CD
:104F00002046002118228DF804708DF808308DF8A5
:104F100009608DF80A50CDF80CE08DF810C0FEF74E
:104F20006FFD3F20C0F2860041900DF105004390D7
:104F30000C20449001A84590012046902046002175
:104F400000F078FB9DF80410002848BFFF210846B8
:104F500047B0F0BD2DE9F04FC7B0DDE952C4DDE93F
:104F600050E50DF1050909F10807DDE9548B4FF013
:104F7000000A8DF80500ADF80610ADF80820384697
:104F800061462A467E198DF804A08DF80A308DF806
:104F90000BE08DF80C50FEF72DFD06F8014B304666
:104FA000414622463719FEF725FD569826F804B0EB
:104FB0007880281941AC00F10D0520460021182207
:104FC000FEF71EFD3F20C0F28300419001A84590EE
:104FD0000120469020460021CDE9439500F02AFBB0
:104FE0009DF80410002848BFFF21084647B0BDE8DF
:104FF000F08F000010B5C6B0002140AC8DF8001055
:105000008DF80100204600211822FEF7F9FC3F2010
:10501000C0F2850040900DF10100429001206946E8
:105020004390CDE944102046002100F003FB9DF899
:105030000010002848BFFF21084646B010BD000000
:1050400010B588B0002002AC8DF807002046002182
:105050001822FEF7D5FC3F20C0F2810002900DF12E
:1050600007000690012007902046002100F0E2FA98
:105070009DF80710002848BFFF21084608B010BD62
:1050800070B5C6B0044600200DF101058DF8000092
:10509000681C22468DF80140FEF7ACFC661C40AC53
:1050A000204600211822FEF7ABFC3F20C0F28E0004
:1050B0004090684644900120459020460021CDE96B
:1050C000425600F0B7FA9DF80010002848BFFF21B3
:1050D000084646B070BD00002DE9F04FC7B0044649
:1050E000881EB0FA80F040096D4693460F460601CF
:1050F000012928464FF000014FF003029A4608BFED
:1051000002264FF000094FF00308FEF779FC012F4B
:10511000ADF804408DF8067003D0022F1BD1102784
:1051200000E0022701A8529CDDE95098033059465F
:105130003A460644FEF75EFC539886F8029070717A
:10514000549886F8038007F10A084FF00109A6F881
:1051500000A03471B071B9F1000F1BD041AC2046F2
:1051600000211822FEF74CFC3F20C0F204104190B1
:1051700001A8CDE94308032046902046002145952B
:1051800000F058FA002809D49DF8000050B147B04B
:10519000BDE8F08F972047B0BDE8F08FFF2047B003
:1051A000BDE8F08F5598BDF801100180002047B090
:1051B000BDE8F08F2DE9F04FC7B004460238B0FAD1
:1051C00080F04009E84693460F460501404600211D
:1051D00003229A460DF10509012C08BF022500267D
:1051E000FEF70EFC012C8DF8054003D0022C2CD1CB
:1051F000102400E0022409F101003946224605444A
:10520000FEF7F8FB85F800B085F801A0E51C012643
:10521000F6B141AC204600211822FEF7F1FB3F20F9
:10522000C0F2021041900320469020460021CDE9B3
:105230004395CDF8148100F0FDF900280CD49DF8B9
:10524000000068B147B0BDE8F08F0125002EE0D125
:10525000972047B0BDE8F08FFF2047B0BDE8F08F42
:105260005098BDF801100180002047B0BDE8F08FD4
:1052700010B5C8B0002142AC8DF80710ADF8080099
:10528000204600211822FEF7BBFB3F20C0F225106C
:10529000429002A84490022045900DF107004690EC
:1052A000012047902046002100F0C4F99DF8071026
:1052B000002848BFFF21084648B010BD10B588B08F
:1052C000002002AC8DF80700204600211822FEF7CE
:1052D00097FB3F20C0F2011002900DF107000690ED
:1052E000012007902046002100F0A4F99DF8071046
:1052F000002848BFFF21084608B010BD70B5C8B0EF
:10530000DDF830C11C4602AD0023ADF80800ADF851
:105310000A108DF80C20A81D614622468DF8073032
:105320008DF80D40FEF766FBA61D42AC204600211D
:105330001822FEF765FB3F20C0F2061042900DF1E7
:10534000070046900120479020460021CDE94456B1
:1053500000F070F99DF80710002848BFFF210846AB
:1053600048B070BD10B5C8B0002142AC8DF8071030
:10537000ADF80800204600211822FEF741FB3F202F
:10538000C0F21800429002A84490022045900DF10E
:1053900007004690012047902046002100F04AF97E
:1053A0009DF80710002848BFFF21084648B010BDEF
:1053B00010B5C6B0002240AC8DF800208DF8010079
:1053C0008DF80210204600211822FEF719FB3F201D
:1053D000C0F20F0040900DF1010042900220439076
:1053E00068464490012045902046002100F022F9B3
:1053F0009DF80010002848BFFF21084646B010BDA8
:1054000070B5C6B00C4600210DF101058DF80010F5
:105410008DF80100A81C114622468DF80240FEF7C7
:10542000E9FAA61C40AC204600211822FEF7E8FA53
:105430003F20C0F20C004090684644900120459007
:1054400020460021CDE9425600F0F4F89DF8001006
:10545000002848BFFF21084646B070BD80B588B01F
:10546000FFF708F945F65112C0F6000208200021A6
:10547000FFF7E0FA40F2E410C2F20300009040F2BD
:10548000BD20C0F60000019040F2C120C0F600002F
:10549000694600F001FA40F2F020C2F203000290E7
:1054A00040F2FC30C2F20300039040F20850C2F216
:1054B0000300049040F23C50059002A8FFF724F945
:1054C000FFF7D4F808B080BD80B50120FFF786FB58
:1054D00080BD000080B50120FFF7AAFB80BD000061
:1054E00010B50C46496840F25812C2F20002116031
:1054F00040F20031C2F20001C861084600F06EF8C7
:105500002068FFF78FF910BD2DE9F041C8B06F4654
:1055100090460D4606463846002105220524FEF732
:105520006FFAADF8086042AE304600211822FEF74F
:1055300067FA0820C0F23000429002A8449002208E
:10554000CDE9450730460021479400F073F8002864
:1055500005D49DF8000030B148B0BDE8F081FF20CF
:1055600048B0BDE8F0819DF803009DF80410287054
:10557000002088F8001048B0BDE8F08110B5C6B032
:1055800040AC00238DF801008DF802108DF8032047
:105590002046002118228DF80030FEF731FA08204D
:1055A000C0F2310040900DF1010042900320439081
:1055B00068464490012045902046002100F03AF8CA
:1055C0009DF80010002848BFFF21084646B010BDD6
:1055D00080B502200021FFF711FB80BD44F201617C
:1055E000C0F60001016044F25161C0F600010161A2
:1055F0007047000010B588B0002002AC8DF807009D
:10560000204600211822FEF7FBF94FF0031002900C
:105610000DF107000690012007902046002100F0C0
:1056200009F89DF80710002848BFFF21084608B078
:1056300010BD00002DE9F04782B08246002000270F
:10564000FEF7B0F9BAF80200BAF800106FF39F2025
:1056500040EA812040F21811C2F200014FF0010926
:1056600081F800909AF80C10DAF8082085B22846E4
:10567000FEF7C6FE40F23016C2F200060DF1040835
:1056800001E000BF9FBB48F2E800FFF723FF05E001
:1056900001F10C042078002818BF4F463046FDF772
:1056A00041FF0028EED130464146FDF749FF019900
:1056B000487A0F2808D1B1F80D00A842E8D1C87A7D
:1056C000DAF810201070E3E7888901F10B04A84292
:1056D000E0D1887A0E310338C3B2DAE904029A4283
:1056E000C8BF1A46CAF81420FAF744FDD2E70120D1
:1056F000FEF758F9002002B0BDE8F08710B584B07D
:1057000040F23C00C2F20000FDF70CFF40F24404FE
:10571000C2F2000420BB207810B340F23C00C2F279
:10572000000003A9FDF70CFF40F20030C2F20000B8
:10573000C169012039B1039A8DF8040001A80292D1
:1057400088479DF80400207018B10398FEF7CCFF3D
:1057500006E0039940F23C00C2F20000FDF7C6FEED
:1057600040F23C00C2F20000FDF7DCFE38B92078C0
:1057700028B140F23C00C2F20000FFF729FF04B05C
:1057800010BD000070B540F21A16C2F20006317862
:10579000044606291AD1307840F24911C2F20001BC
:1057A000087040F2042104EB4400C2F2000101EB56
:1057B000C00006213470417540F24C10C2F2000066
:1057C0004FF0FF3100250160284670BDFEF770FCE8
:1057D00040F2042204EB4401C2F2000202EBC101D8
:1057E0008B680546184488608868317801EB410170
:1057F00002EBC101896881420CD931782046FDF75E
:10580000D7FE307840F24911C2F2000108702846F4
:10581000347070BD40F21A13C2F20003197801EB24
:10582000410302EBC30313F8156F062E06D006EBF7
:10583000460602EBC606B6688642EFD92046FDF75B
:105840009BFE284670BD0000FBF7DAFDFDF772FFF6
:10585000FEF742FEFEF722FAFEF728F8FDF79CFF5E
:10586000FDF78AFFFEF736F8FEF75AF8FDF7D6FE89
:10587000FEF72EF8FDF76AFFFDF778FFFCE7000062
:1058800080B50220FFF7AAF980BD000080B5022094
:10589000FFF7CEF980BD000010B50C46496840F214
:1058A0005C12C2F20002116040F24441C2F20001F7
:1058B000C861084600F00AF82068FEF7DDFF10BD59
:1058C00080B508200021FFF799F980BD44F2557199
:1058D000C0F60001016044F29971C0F60001016157
:1058E000704700002DE9F041074600201C46154690
:1058F0000E46FAF7C9FE40F27C08C2F20008D8F85A
:1059000000002946A0F80970C6720C303246FAF73A
:1059100031FC40F21910C2F200000121017040F286
:105920004440C2F20000026900200021904748F282
:10593000E800FFF7ABFFD8F8001004F108008A7800
:105940000332FAF717FC0120FAF79EFEBDE8F0815A
:1059500010B584B040F27000C2F20000FDF7E2FD25
:1059600040F27804C2F2000420BB207810B340F269
:105970007000C2F2000003A9FDF7E2FD40F24440CE
:10598000C2F20000C169012039B1039A8DF8040008
:1059900001A8029288479DF80400207018B103986E
:1059A000FEF7A2FE06E0039940F27000C2F200008A
:1059B000FDF79CFD40F27000C2F20000FDF7B2FD61
:1059C00038B9207828B140F27000C2F20000FFF729
:1059D00077FF04B010BD02E008C8121F08C1002AFA
:1059E000FAD170477047002001E001C1121F002A60
:1059F000FBD1704700000000000000000000000024
:105A0000F45A0008440A0320480A0320260404002C
:105A10000000000000000000000000000000000086
:105A200000000000440008004005020112299C000B
:105A3000F4010000FFFFFFFF48010100002000000B
:105A400000037206000000000D00000001000000CD
:105A5000030000000500000001000000010000003C
:105A6000060000000A000000200000000200000004
:105A700004000000080000001000000040000000CA
:105A8000800000000001000000020000A08601006C
:105A9000400D0300801A060000350C0040420F0044
:105AA00080841E0000093D0000127A000024F400EA
:105AB00000366E010048E801006CDC0200000000C6
:105AC00000000000000000000000000004030202CB
:105AD000010101010000000000000000D53B0008AA
